{"abi":[{"type":"constructor","inputs":[{"name":"initialOwner","type":"address","internalType":"address"}],"stateMutability":"nonpayable"},{"type":"function","name":"contexts","inputs":[{"name":"","type":"uint256","internalType":"uint256"}],"outputs":[{"name":"userQuery","type":"string","internalType":"string"},{"name":"aiResponse","type":"string","internalType":"string"},{"name":"transactionHash","type":"string","internalType":"string"},{"name":"timestamp","type":"uint256","internalType":"uint256"},{"name":"success","type":"bool","internalType":"bool"},{"name":"user","type":"address","internalType":"address"}],"stateMutability":"view"},{"type":"function","name":"getContext","inputs":[{"name":"contextId","type":"uint256","internalType":"uint256"}],"outputs":[{"name":"","type":"tuple","internalType":"struct ContextStore.AIContext","components":[{"name":"userQuery","type":"string","internalType":"string"},{"name":"aiResponse","type":"string","internalType":"string"},{"name":"transactionHash","type":"string","internalType":"string"},{"name":"timestamp","type":"uint256","internalType":"uint256"},{"name":"success","type":"bool","internalType":"bool"},{"name":"user","type":"address","internalType":"address"}]}],"stateMutability":"view"},{"type":"function","name":"getUserContexts","inputs":[{"name":"user","type":"address","internalType":"address"}],"outputs":[{"name":"","type":"uint256[]","internalType":"uint256[]"}],"stateMutability":"view"},{"type":"function","name":"owner","inputs":[],"outputs":[{"name":"","type":"address","internalType":"address"}],"stateMutability":"view"},{"type":"function","name":"renounceOwnership","inputs":[],"outputs":[],"stateMutability":"nonpayable"},{"type":"function","name":"storeContext","inputs":[{"name":"userQuery","type":"string","internalType":"string"},{"name":"aiResponse","type":"string","internalType":"string"},{"name":"transactionHash","type":"string","internalType":"string"},{"name":"success","type":"bool","internalType":"bool"}],"outputs":[{"name":"","type":"uint256","internalType":"uint256"}],"stateMutability":"nonpayable"},{"type":"function","name":"transferOwnership","inputs":[{"name":"newOwner","type":"address","internalType":"address"}],"outputs":[],"stateMutability":"nonpayable"},{"type":"function","name":"userContexts","inputs":[{"name":"","type":"address","internalType":"address"},{"name":"","type":"uint256","internalType":"uint256"}],"outputs":[{"name":"","type":"uint256","internalType":"uint256"}],"stateMutability":"view"},{"type":"event","name":"ContextStored","inputs":[{"name":"contextId","type":"uint256","indexed":true,"internalType":"uint256"},{"name":"user","type":"address","indexed":true,"internalType":"address"},{"name":"transactionHash","type":"string","indexed":false,"internalType":"string"}],"anonymous":false},{"type":"event","name":"OwnershipTransferred","inputs":[{"name":"previousOwner","type":"address","indexed":true,"internalType":"address"},{"name":"newOwner","type":"address","indexed":true,"internalType":"address"}],"anonymous":false},{"type":"error","name":"OwnableInvalidOwner","inputs":[{"name":"owner","type":"address","internalType":"address"}]},{"type":"error","name":"OwnableUnauthorizedAccount","inputs":[{"name":"account","type":"address","internalType":"address"}]},{"type":"error","name":"ReentrancyGuardReentrantCall","inputs":[]}],"bytecode":{"object":"0x608060405234801561000f575f80fd5b50604051610dde380380610dde83398101604081905261002e916100bf565b806001600160a01b03811661005c57604051631e4fbdf760e01b81525f600482015260240160405180910390fd5b61006581610070565b5050600180556100ec565b5f80546001600160a01b038381166001600160a01b0319831681178455604051919092169283917f8be0079c531659141344cd1fd0a4f28419497f9722a3daafe3b4186f6b6457e09190a35050565b5f602082840312156100cf575f80fd5b81516001600160a01b03811681146100e5575f80fd5b9392505050565b610ce5806100f95f395ff3fe608060405234801561000f575f80fd5b5060043610610085575f3560e01c8063a4c5da5011610058578063a4c5da50146100fb578063e68defac1461011c578063f2fde38b1461013c578063f8c7ec081461014f575f80fd5b806322dbb9e814610089578063715018a6146100b7578063779cd9a7146100c15780638da5cb5b146100e1575b5f80fd5b61009c610097366004610815565b610162565b6040516100ae9695949392919061086f565b60405180910390f35b6100bf610334565b005b6100d46100cf3660046108ea565b610347565b6040516100ae919061090a565b5f546040516001600160a01b0390911681526020016100ae565b61010e6101093660046109ea565b6103b0565b6040519081526020016100ae565b61012f61012a366004610815565b6104f1565b6040516100ae9190610a83565b6100bf61014a3660046108ea565b61072d565b61010e61015d366004610b0f565b61076f565b60036020525f908152604090208054819061017c90610b37565b80601f01602080910402602001604051908101604052809291908181526020018280546101a890610b37565b80156101f35780601f106101ca576101008083540402835291602001916101f3565b820191905f5260205f20905b8154815290600101906020018083116101d657829003601f168201915b50505050509080600101805461020890610b37565b80601f016020809104026020016040519081016040528092919081815260200182805461023490610b37565b801561027f5780601f106102565761010080835404028352916020019161027f565b820191905f5260205f20905b81548152906001019060200180831161026257829003601f168201915b50505050509080600201805461029490610b37565b80601f01602080910402602001604051908101604052809291908181526020018280546102c090610b37565b801561030b5780601f106102e25761010080835404028352916020019161030b565b820191905f5260205f20905b8154815290600101906020018083116102ee57829003601f168201915b50505050600383015460049093015491929160ff8116915061010090046001600160a01b031686565b61033c61079a565b6103455f6107c6565b565b6001600160a01b0381165f908152600460209081526040918290208054835181840281018401909452808452606093928301828280156103a457602002820191905f5260205f20905b815481526020019060010190808311610390575b50505050509050919050565b600280545f91826103c083610b6f565b90915550506002546040805160c081018252878152602080820188905281830187905242606083015285151560808301523360a08301525f848152600390915291909120815181906104129082610be1565b50602082015160018201906104279082610be1565b506040820151600282019061043c9082610be1565b506060820151600382015560808201516004918201805460a0909401516001600160a01b031661010002610100600160a81b0319921515929092166001600160a81b03199094169390931717909155335f81815260209283526040808220805460018101825590835293909120909201839055905182907f0ef1a50a05e5100ca60b58938b9e385a70f033d12584ea75ddf600bebfaed747906104e0908890610c9d565b60405180910390a395945050505050565b6105326040518060c001604052806060815260200160608152602001606081526020015f81526020015f151581526020015f6001600160a01b031681525090565b5f8281526003602052604090819020815160c0810190925280548290829061055990610b37565b80601f016020809104026020016040519081016040528092919081815260200182805461058590610b37565b80156105d05780601f106105a7576101008083540402835291602001916105d0565b820191905f5260205f20905b8154815290600101906020018083116105b357829003601f168201915b505050505081526020016001820180546105e990610b37565b80601f016020809104026020016040519081016040528092919081815260200182805461061590610b37565b80156106605780601f1061063757610100808354040283529160200191610660565b820191905f5260205f20905b81548152906001019060200180831161064357829003601f168201915b5050505050815260200160028201805461067990610b37565b80601f01602080910402602001604051908101604052809291908181526020018280546106a590610b37565b80156106f05780601f106106c7576101008083540402835291602001916106f0565b820191905f5260205f20905b8154815290600101906020018083116106d357829003601f168201915b50505091835250506003820154602082015260049091015460ff81161515604083015261010090046001600160a01b031660609091015292915050565b61073561079a565b6001600160a01b03811661076357604051631e4fbdf760e01b81525f60048201526024015b60405180910390fd5b61076c816107c6565b50565b6004602052815f5260405f208181548110610788575f80fd5b905f5260205f20015f91509150505481565b5f546001600160a01b031633146103455760405163118cdaa760e01b815233600482015260240161075a565b5f80546001600160a01b038381166001600160a01b0319831681178455604051919092169283917f8be0079c531659141344cd1fd0a4f28419497f9722a3daafe3b4186f6b6457e09190a35050565b5f60208284031215610825575f80fd5b5035919050565b5f81518084525f5b8181101561085057602081850181015186830182015201610834565b505f602082860101526020601f19601f83011685010191505092915050565b60c081525f61088160c083018961082c565b8281036020840152610893818961082c565b905082810360408401526108a7818861082c565b6060840196909652505091151560808301526001600160a01b031660a0909101529392505050565b80356001600160a01b03811681146108e5575f80fd5b919050565b5f602082840312156108fa575f80fd5b610903826108cf565b9392505050565b602080825282518282018190525f9190848201906040850190845b8181101561094157835183529284019291840191600101610925565b50909695505050505050565b634e487b7160e01b5f52604160045260245ffd5b5f82601f830112610970575f80fd5b813567ffffffffffffffff8082111561098b5761098b61094d565b604051601f8301601f19908116603f011681019082821181831017156109b3576109b361094d565b816040528381528660208588010111156109cb575f80fd5b836020870160208301375f602085830101528094505050505092915050565b5f805f80608085870312156109fd575f80fd5b843567ffffffffffffffff80821115610a14575f80fd5b610a2088838901610961565b95506020870135915080821115610a35575f80fd5b610a4188838901610961565b94506040870135915080821115610a56575f80fd5b50610a6387828801610961565b92505060608501358015158114610a78575f80fd5b939692955090935050565b602081525f825160c06020840152610a9e60e084018261082c565b90506020840151601f1980858403016040860152610abc838361082c565b9250604086015191508085840301606086015250610ada828261082c565b915050606084015160808401526080840151151560a084015260018060a01b0360a08501511660c08401528091505092915050565b5f8060408385031215610b20575f80fd5b610b29836108cf565b946020939093013593505050565b600181811c90821680610b4b57607f821691505b602082108103610b6957634e487b7160e01b5f52602260045260245ffd5b50919050565b5f60018201610b8c57634e487b7160e01b5f52601160045260245ffd5b5060010190565b601f821115610bdc575f81815260208120601f850160051c81016020861015610bb95750805b601f850160051c820191505b81811015610bd857828155600101610bc5565b5050505b505050565b815167ffffffffffffffff811115610bfb57610bfb61094d565b610c0f81610c098454610b37565b84610b93565b602080601f831160018114610c42575f8415610c2b5750858301515b5f19600386901b1c1916600185901b178555610bd8565b5f85815260208120601f198616915b82811015610c7057888601518255948401946001909101908401610c51565b5085821015610c8d57878501515f19600388901b60f8161c191681555b5050505050600190811b01905550565b602081525f610903602083018461082c56fea2646970667358221220b95bcc5ea51c46ab43c74cde149de84fea5c522ce87d19e1b9c58d5a2b2d984264736f6c63430008140033","linkReferences":{}},"methodIdentifiers":{"contexts(uint256)":"22dbb9e8","getContext(uint256)":"e68defac","getUserContexts(address)":"779cd9a7","owner()":"8da5cb5b","renounceOwnership()":"715018a6","storeContext(string,string,string,bool)":"a4c5da50","transferOwnership(address)":"f2fde38b","userContexts(address,uint256)":"f8c7ec08"},"id":29}