{"abi":[{"type":"constructor","inputs":[{"name":"initialOwner","type":"address","internalType":"address"}],"stateMutability":"nonpayable"},{"type":"function","name":"INTEREST_RATE","inputs":[],"outputs":[{"name":"","type":"uint256","internalType":"uint256"}],"stateMutability":"view"},{"type":"function","name":"LOAN_DURATION","inputs":[],"outputs":[{"name":"","type":"uint256","internalType":"uint256"}],"stateMutability":"view"},{"type":"function","name":"borrow","inputs":[],"outputs":[],"stateMutability":"payable"},{"type":"function","name":"calculateInterest","inputs":[{"name":"loanId","type":"uint256","internalType":"uint256"}],"outputs":[{"name":"","type":"uint256","internalType":"uint256"}],"stateMutability":"view"},{"type":"function","name":"getLoan","inputs":[{"name":"loanId","type":"uint256","internalType":"uint256"}],"outputs":[{"name":"","type":"tuple","internalType":"struct LendingPool.Loan","components":[{"name":"id","type":"uint256","internalType":"uint256"},{"name":"borrower","type":"address","internalType":"address"},{"name":"amount","type":"uint256","internalType":"uint256"},{"name":"interestRate","type":"uint256","internalType":"uint256"},{"name":"startTime","type":"uint256","internalType":"uint256"},{"name":"dueTime","type":"uint256","internalType":"uint256"},{"name":"active","type":"bool","internalType":"bool"},{"name":"repaid","type":"bool","internalType":"bool"}]}],"stateMutability":"view"},{"type":"function","name":"getUserLoans","inputs":[{"name":"user","type":"address","internalType":"address"}],"outputs":[{"name":"","type":"uint256[]","internalType":"uint256[]"}],"stateMutability":"view"},{"type":"function","name":"loans","inputs":[{"name":"","type":"uint256","internalType":"uint256"}],"outputs":[{"name":"id","type":"uint256","internalType":"uint256"},{"name":"borrower","type":"address","internalType":"address"},{"name":"amount","type":"uint256","internalType":"uint256"},{"name":"interestRate","type":"uint256","internalType":"uint256"},{"name":"startTime","type":"uint256","internalType":"uint256"},{"name":"dueTime","type":"uint256","internalType":"uint256"},{"name":"active","type":"bool","internalType":"bool"},{"name":"repaid","type":"bool","internalType":"bool"}],"stateMutability":"view"},{"type":"function","name":"owner","inputs":[],"outputs":[{"name":"","type":"address","internalType":"address"}],"stateMutability":"view"},{"type":"function","name":"renounceOwnership","inputs":[],"outputs":[],"stateMutability":"nonpayable"},{"type":"function","name":"repay","inputs":[{"name":"loanId","type":"uint256","internalType":"uint256"}],"outputs":[],"stateMutability":"payable"},{"type":"function","name":"transferOwnership","inputs":[{"name":"newOwner","type":"address","internalType":"address"}],"outputs":[],"stateMutability":"nonpayable"},{"type":"function","name":"userLoans","inputs":[{"name":"","type":"address","internalType":"address"},{"name":"","type":"uint256","internalType":"uint256"}],"outputs":[{"name":"","type":"uint256","internalType":"uint256"}],"stateMutability":"view"},{"type":"event","name":"LoanCreated","inputs":[{"name":"loanId","type":"uint256","indexed":true,"internalType":"uint256"},{"name":"borrower","type":"address","indexed":true,"internalType":"address"},{"name":"amount","type":"uint256","indexed":false,"internalType":"uint256"}],"anonymous":false},{"type":"event","name":"LoanRepaid","inputs":[{"name":"loanId","type":"uint256","indexed":true,"internalType":"uint256"},{"name":"borrower","type":"address","indexed":true,"internalType":"address"},{"name":"amount","type":"uint256","indexed":false,"internalType":"uint256"},{"name":"interest","type":"uint256","indexed":false,"internalType":"uint256"}],"anonymous":false},{"type":"event","name":"OwnershipTransferred","inputs":[{"name":"previousOwner","type":"address","indexed":true,"internalType":"address"},{"name":"newOwner","type":"address","indexed":true,"internalType":"address"}],"anonymous":false},{"type":"error","name":"OwnableInvalidOwner","inputs":[{"name":"owner","type":"address","internalType":"address"}]},{"type":"error","name":"OwnableUnauthorizedAccount","inputs":[{"name":"account","type":"address","internalType":"address"}]},{"type":"error","name":"ReentrancyGuardReentrantCall","inputs":[]}],"bytecode":{"object":"0x608060405234801561000f575f80fd5b50604051610c78380380610c7883398101604081905261002e916100bf565b806001600160a01b03811661005c57604051631e4fbdf760e01b81525f600482015260240160405180910390fd5b61006581610070565b5050600180556100ec565b5f80546001600160a01b038381166001600160a01b0319831681178455604051919092169283917f8be0079c531659141344cd1fd0a4f28419497f9722a3daafe3b4186f6b6457e09190a35050565b5f602082840312156100cf575f80fd5b81516001600160a01b03811681146100e5575f80fd5b9392505050565b610b7f806100f95f395ff3fe6080604052600436106100a5575f3560e01c8063a57475e011610062578063a57475e0146101d7578063d8bad5bd146101f6578063e02a4dfd14610215578063e1ec3c681461022b578063e68d3569146102df578063f2fde38b146102e7575f80fd5b806302bf321f146100a9578063371fd8e6146100de578063504006ca146100f35780635b72a33a1461017b578063715018a61461019d5780638da5cb5b146101b1575b5f80fd5b3480156100b4575f80fd5b506100c86100c3366004610a19565b610306565b6040516100d59190610a39565b60405180910390f35b6100f16100ec366004610a7c565b61036f565b005b3480156100fe575f80fd5b5061011261010d366004610a7c565b610544565b6040516100d59190815181526020808301516001600160a01b03169082015260408083015190820152606080830151908201526080808301519082015260a0808301519082015260c08083015115159082015260e0918201511515918101919091526101000190565b348015610186575f80fd5b5061018f600881565b6040519081526020016100d5565b3480156101a8575f80fd5b506100f161060f565b3480156101bc575f80fd5b505f546040516001600160a01b0390911681526020016100d5565b3480156101e2575f80fd5b5061018f6101f1366004610a7c565b610622565b348015610201575f80fd5b5061018f610210366004610a93565b61070e565b348015610220575f80fd5b5061018f62278d0081565b348015610236575f80fd5b50610298610245366004610a7c565b600360208190525f9182526040909120805460018201546002830154938301546004840154600585015460069095015493956001600160a01b039093169492939192909160ff8082169161010090041688565b604080519889526001600160a01b039097166020890152958701949094526060860192909252608085015260a0840152151560c0830152151560e0820152610100016100d5565b6100f1610739565b3480156102f2575f80fd5b506100f1610301366004610a19565b61091f565b6001600160a01b0381165f9081526004602090815260409182902080548351818402810184019094528084526060939283018282801561036357602002820191905f5260205f20905b81548152602001906001019080831161034f575b50505050509050919050565b610377610959565b5f81815260036020526040902060018101546001600160a01b031633146103d55760405162461bcd60e51b815260206004820152600d60248201526c2737ba103cb7bab9103637b0b760991b60448201526064015b60405180910390fd5b600681015460ff1661041b5760405162461bcd60e51b815260206004820152600f60248201526e4c6f616e206e6f742061637469766560881b60448201526064016103cc565b6006810154610100900460ff161561046b5760405162461bcd60e51b8152602060048201526013602482015272131bd85b88185b1c9958591e481c995c185a59606a1b60448201526064016103cc565b5f61047583610622565b90505f8183600201546104889190610acf565b9050803410156104da5760405162461bcd60e51b815260206004820152601d60248201527f496e73756666696369656e742072657061796d656e7420616d6f756e7400000060448201526064016103cc565b60068301805461ffff19166101001790556002830154604051339186917f553c9087bff5b534e499a66dac3fa9db2962cd252ea01165239755836ae5345e9161052d918790918252602082015260400190565b60405180910390a350505061054160018055565b50565b6105916040518061010001604052805f81526020015f6001600160a01b031681526020015f81526020015f81526020015f81526020015f81526020015f151581526020015f151581525090565b505f90815260036020818152604092839020835161010080820186528254825260018301546001600160a01b03169382019390935260028201549481019490945291820154606084015260048201546080840152600582015460a084015260069091015460ff808216151560c085015291900416151560e082015290565b610617610983565b6106205f6109af565b565b5f818152600360208181526040808420815161010080820184528254825260018301546001600160a01b03169482019490945260028201549281019290925292830154606082015260048301546080820152600583015460a082015260069092015460ff80821615801560c08601529290910416151560e0830152806106a957508060e001515b156106b657505f92915050565b5f8160800151426106c79190610ae8565b90505f6106d76201518083610afb565b9050618e9481846060015185604001516106f19190610b1a565b6106fb9190610b1a565b6107059190610afb565b95945050505050565b6004602052815f5260405f208181548110610727575f80fd5b905f5260205f20015f91509150505481565b610741610959565b5f34116107905760405162461bcd60e51b815260206004820152601d60248201527f416d6f756e74206d7573742062652067726561746572207468616e203000000060448201526064016103cc565b60028054905f61079f83610b31565b91905055505f6002549050604051806101000160405280828152602001336001600160a01b031681526020013481526020016008815260200142815260200162278d00426107ed9190610acf565b8152600160208083018290525f60409384018190528581526003808352848220865181558684015181860180546001600160a01b039092166001600160a01b0319909216919091179055868601516002820155606087015191810191909155608086015160048083019190915560a0870151600583015560c08701516006909201805460e09098015115156101000261ff00199315159390931661ffff1990981697909717919091179095553380825294825283812080549384018155815290812090910184905590513480156108fc0292909190818181858888f193505050501580156108dd573d5f803e3d5ffd5b50604051348152339082907f8910ba13a55695f056e224bbbc6b65d866b12a8c2fbdf387fb853a1cca298cd79060200160405180910390a35061062060018055565b610927610983565b6001600160a01b03811661095057604051631e4fbdf760e01b81525f60048201526024016103cc565b610541816109af565b60026001540361097c57604051633ee5aeb560e01b815260040160405180910390fd5b6002600155565b5f546001600160a01b031633146106205760405163118cdaa760e01b81523360048201526024016103cc565b5f80546001600160a01b038381166001600160a01b0319831681178455604051919092169283917f8be0079c531659141344cd1fd0a4f28419497f9722a3daafe3b4186f6b6457e09190a35050565b80356001600160a01b0381168114610a14575f80fd5b919050565b5f60208284031215610a29575f80fd5b610a32826109fe565b9392505050565b602080825282518282018190525f9190848201906040850190845b81811015610a7057835183529284019291840191600101610a54565b50909695505050505050565b5f60208284031215610a8c575f80fd5b5035919050565b5f8060408385031215610aa4575f80fd5b610aad836109fe565b946020939093013593505050565b634e487b7160e01b5f52601160045260245ffd5b80820180821115610ae257610ae2610abb565b92915050565b81810381811115610ae257610ae2610abb565b5f82610b1557634e487b7160e01b5f52601260045260245ffd5b500490565b8082028115828204841417610ae257610ae2610abb565b5f60018201610b4257610b42610abb565b506001019056fea2646970667358221220758606e91b972564328236bdc402a4548ff893d5ac40f466a713a153cd684aa364736f6c63430008140033","linkReferences":{}},"methodIdentifiers":{"INTEREST_RATE()":"5b72a33a","LOAN_DURATION()":"e02a4dfd","borrow()":"e68d3569","calculateInterest(uint256)":"a57475e0","getLoan(uint256)":"504006ca","getUserLoans(address)":"02bf321f","loans(uint256)":"e1ec3c68","owner()":"8da5cb5b","renounceOwnership()":"715018a6","repay(uint256)":"371fd8e6","transferOwnership(address)":"f2fde38b","userLoans(address,uint256)":"d8bad5bd"},"id":29}