{"abi":[{"type":"constructor","inputs":[{"name":"initialOwner","type":"address","internalType":"address"}],"stateMutability":"nonpayable"},{"type":"function","name":"getPortfolio","inputs":[{"name":"user","type":"address","internalType":"address"}],"outputs":[{"name":"","type":"tuple","internalType":"struct PortfolioManager.Portfolio","components":[{"name":"user","type":"address","internalType":"address"},{"name":"totalValue","type":"uint256","internalType":"uint256"},{"name":"lastUpdate","type":"uint256","internalType":"uint256"},{"name":"active","type":"bool","internalType":"bool"}]}],"stateMutability":"view"},{"type":"function","name":"getUserBalance","inputs":[{"name":"user","type":"address","internalType":"address"},{"name":"token","type":"address","internalType":"address"}],"outputs":[{"name":"","type":"uint256","internalType":"uint256"}],"stateMutability":"view"},{"type":"function","name":"owner","inputs":[],"outputs":[{"name":"","type":"address","internalType":"address"}],"stateMutability":"view"},{"type":"function","name":"portfolios","inputs":[{"name":"","type":"address","internalType":"address"}],"outputs":[{"name":"user","type":"address","internalType":"address"},{"name":"totalValue","type":"uint256","internalType":"uint256"},{"name":"lastUpdate","type":"uint256","internalType":"uint256"},{"name":"active","type":"bool","internalType":"bool"}],"stateMutability":"view"},{"type":"function","name":"renounceOwnership","inputs":[],"outputs":[],"stateMutability":"nonpayable"},{"type":"function","name":"transferOwnership","inputs":[{"name":"newOwner","type":"address","internalType":"address"}],"outputs":[],"stateMutability":"nonpayable"},{"type":"function","name":"updateBalance","inputs":[{"name":"user","type":"address","internalType":"address"},{"name":"token","type":"address","internalType":"address"},{"name":"balance","type":"uint256","internalType":"uint256"}],"outputs":[],"stateMutability":"nonpayable"},{"type":"function","name":"updatePortfolio","inputs":[{"name":"user","type":"address","internalType":"address"},{"name":"totalValue","type":"uint256","internalType":"uint256"}],"outputs":[],"stateMutability":"nonpayable"},{"type":"function","name":"userBalances","inputs":[{"name":"","type":"address","internalType":"address"},{"name":"","type":"address","internalType":"address"}],"outputs":[{"name":"","type":"uint256","internalType":"uint256"}],"stateMutability":"view"},{"type":"event","name":"BalanceUpdated","inputs":[{"name":"user","type":"address","indexed":true,"internalType":"address"},{"name":"token","type":"address","indexed":true,"internalType":"address"},{"name":"balance","type":"uint256","indexed":false,"internalType":"uint256"}],"anonymous":false},{"type":"event","name":"OwnershipTransferred","inputs":[{"name":"previousOwner","type":"address","indexed":true,"internalType":"address"},{"name":"newOwner","type":"address","indexed":true,"internalType":"address"}],"anonymous":false},{"type":"event","name":"PortfolioUpdated","inputs":[{"name":"user","type":"address","indexed":true,"internalType":"address"},{"name":"totalValue","type":"uint256","indexed":false,"internalType":"uint256"}],"anonymous":false},{"type":"error","name":"OwnableInvalidOwner","inputs":[{"name":"owner","type":"address","internalType":"address"}]},{"type":"error","name":"OwnableUnauthorizedAccount","inputs":[{"name":"account","type":"address","internalType":"address"}]},{"type":"error","name":"ReentrancyGuardReentrantCall","inputs":[]}],"bytecode":{"object":"0x608060405234801561000f575f80fd5b5060405161067c38038061067c83398101604081905261002e916100bf565b806001600160a01b03811661005c57604051631e4fbdf760e01b81525f600482015260240160405180910390fd5b61006581610070565b5050600180556100ec565b5f80546001600160a01b038381166001600160a01b0319831681178455604051919092169283917f8be0079c531659141344cd1fd0a4f28419497f9722a3daafe3b4186f6b6457e09190a35050565b5f602082840312156100cf575f80fd5b81516001600160a01b03811681146100e5575f80fd5b9392505050565b610583806100f95f395ff3fe608060405234801561000f575f80fd5b5060043610610090575f3560e01c80638da5cb5b116100635780638da5cb5b1461016b5780639c324b1f14610185578063adb5198014610198578063eb22ae11146101c2578063f2fde38b1461027f575f80fd5b806334954a99146100945780636805d6ad146100a9578063715018a6146100f45780637baab3da146100fc575b5f80fd5b6100a76100a236600461049b565b610292565b005b6100e16100b73660046104d4565b6001600160a01b039182165f90815260036020908152604080832093909416825291909152205490565b6040519081526020015b60405180910390f35b6100a76102fa565b61013f61010a366004610505565b600260208190525f918252604090912080546001820154928201546003909201546001600160a01b0390911692919060ff1684565b604080516001600160a01b039095168552602085019390935291830152151560608201526080016100eb565b5f546040516001600160a01b0390911681526020016100eb565b6100a7610193366004610525565b61030d565b6100e16101a63660046104d4565b600360209081525f928352604080842090915290825290205481565b6102416101d0366004610505565b60408051608080820183525f808352602080840182905283850182905260609384018290526001600160a01b03958616825260028082529185902085519384018652805490961683526001860154908301528401549281019290925260039092015460ff1615159181019190915290565b6040516100eb919081516001600160a01b03168152602080830151908201526040808301519082015260609182015115159181019190915260800190565b6100a761028d366004610505565b6103c3565b61029a610405565b6001600160a01b038381165f8181526003602090815260408083209487168084529482529182902085905590518481527f2047d1633ff7768462ae07d28cb16e484203bfd6d85ce832494270ebcd9081a2910160405180910390a3505050565b610302610405565b61030b5f610431565b565b610315610405565b604080516080810182526001600160a01b038481168083526020808401868152428587019081526001606087018181525f8681526002808752908a9020985189546001600160a01b0319169816979097178855925190870155519385019390935591516003909301805460ff191693151593909317909255915183815290917ffcfa0761dab6873023e04c2d8e99cefdc3d64ee860c8bdf9742211179e723bed910160405180910390a25050565b6103cb610405565b6001600160a01b0381166103f957604051631e4fbdf760e01b81525f60048201526024015b60405180910390fd5b61040281610431565b50565b5f546001600160a01b0316331461030b5760405163118cdaa760e01b81523360048201526024016103f0565b5f80546001600160a01b038381166001600160a01b0319831681178455604051919092169283917f8be0079c531659141344cd1fd0a4f28419497f9722a3daafe3b4186f6b6457e09190a35050565b80356001600160a01b0381168114610496575f80fd5b919050565b5f805f606084860312156104ad575f80fd5b6104b684610480565b92506104c460208501610480565b9150604084013590509250925092565b5f80604083850312156104e5575f80fd5b6104ee83610480565b91506104fc60208401610480565b90509250929050565b5f60208284031215610515575f80fd5b61051e82610480565b9392505050565b5f8060408385031215610536575f80fd5b61053f83610480565b94602093909301359350505056fea26469706673582212205fec03dd9990fce98eeb48e49087ab07435b8108d67efd19e4e55401f643f6f064736f6c63430008140033","linkReferences":{}},"methodIdentifiers":{"getPortfolio(address)":"eb22ae11","getUserBalance(address,address)":"6805d6ad","owner()":"8da5cb5b","portfolios(address)":"7baab3da","renounceOwnership()":"715018a6","transferOwnership(address)":"f2fde38b","updateBalance(address,address,uint256)":"34954a99","updatePortfolio(address,uint256)":"9c324b1f","userBalances(address,address)":"adb51980"},"id":29}