{"abi":[{"type":"constructor","inputs":[{"name":"initialOwner","type":"address","internalType":"address"}],"stateMutability":"nonpayable"},{"type":"function","name":"LOCK_PERIOD","inputs":[],"outputs":[{"name":"","type":"uint256","internalType":"uint256"}],"stateMutability":"view"},{"type":"function","name":"REWARD_RATE","inputs":[],"outputs":[{"name":"","type":"uint256","internalType":"uint256"}],"stateMutability":"view"},{"type":"function","name":"calculateRewards","inputs":[{"name":"stakeId","type":"uint256","internalType":"uint256"}],"outputs":[{"name":"","type":"uint256","internalType":"uint256"}],"stateMutability":"view"},{"type":"function","name":"getStake","inputs":[{"name":"stakeId","type":"uint256","internalType":"uint256"}],"outputs":[{"name":"","type":"tuple","internalType":"struct StakingContract.Stake","components":[{"name":"id","type":"uint256","internalType":"uint256"},{"name":"user","type":"address","internalType":"address"},{"name":"amount","type":"uint256","internalType":"uint256"},{"name":"startTime","type":"uint256","internalType":"uint256"},{"name":"endTime","type":"uint256","internalType":"uint256"},{"name":"active","type":"bool","internalType":"bool"},{"name":"rewards","type":"uint256","internalType":"uint256"}]}],"stateMutability":"view"},{"type":"function","name":"getUserStakes","inputs":[{"name":"user","type":"address","internalType":"address"}],"outputs":[{"name":"","type":"uint256[]","internalType":"uint256[]"}],"stateMutability":"view"},{"type":"function","name":"owner","inputs":[],"outputs":[{"name":"","type":"address","internalType":"address"}],"stateMutability":"view"},{"type":"function","name":"renounceOwnership","inputs":[],"outputs":[],"stateMutability":"nonpayable"},{"type":"function","name":"stake","inputs":[],"outputs":[],"stateMutability":"payable"},{"type":"function","name":"stakes","inputs":[{"name":"","type":"uint256","internalType":"uint256"}],"outputs":[{"name":"id","type":"uint256","internalType":"uint256"},{"name":"user","type":"address","internalType":"address"},{"name":"amount","type":"uint256","internalType":"uint256"},{"name":"startTime","type":"uint256","internalType":"uint256"},{"name":"endTime","type":"uint256","internalType":"uint256"},{"name":"active","type":"bool","internalType":"bool"},{"name":"rewards","type":"uint256","internalType":"uint256"}],"stateMutability":"view"},{"type":"function","name":"transferOwnership","inputs":[{"name":"newOwner","type":"address","internalType":"address"}],"outputs":[],"stateMutability":"nonpayable"},{"type":"function","name":"unstake","inputs":[{"name":"stakeId","type":"uint256","internalType":"uint256"}],"outputs":[],"stateMutability":"nonpayable"},{"type":"function","name":"userStakes","inputs":[{"name":"","type":"address","internalType":"address"},{"name":"","type":"uint256","internalType":"uint256"}],"outputs":[{"name":"","type":"uint256","internalType":"uint256"}],"stateMutability":"view"},{"type":"event","name":"OwnershipTransferred","inputs":[{"name":"previousOwner","type":"address","indexed":true,"internalType":"address"},{"name":"newOwner","type":"address","indexed":true,"internalType":"address"}],"anonymous":false},{"type":"event","name":"Staked","inputs":[{"name":"stakeId","type":"uint256","indexed":true,"internalType":"uint256"},{"name":"user","type":"address","indexed":true,"internalType":"address"},{"name":"amount","type":"uint256","indexed":false,"internalType":"uint256"}],"anonymous":false},{"type":"event","name":"Unstaked","inputs":[{"name":"stakeId","type":"uint256","indexed":true,"internalType":"uint256"},{"name":"user","type":"address","indexed":true,"internalType":"address"},{"name":"amount","type":"uint256","indexed":false,"internalType":"uint256"},{"name":"rewards","type":"uint256","indexed":false,"internalType":"uint256"}],"anonymous":false},{"type":"error","name":"OwnableInvalidOwner","inputs":[{"name":"owner","type":"address","internalType":"address"}]},{"type":"error","name":"OwnableUnauthorizedAccount","inputs":[{"name":"account","type":"address","internalType":"address"}]},{"type":"error","name":"ReentrancyGuardReentrantCall","inputs":[]}],"bytecode":{"object":"0x608060405234801561000f575f80fd5b50604051610bb2380380610bb283398101604081905261002e916100bf565b806001600160a01b03811661005c57604051631e4fbdf760e01b81525f600482015260240160405180910390fd5b61006581610070565b5050600180556100ec565b5f80546001600160a01b038381166001600160a01b0319831681178455604051919092169283917f8be0079c531659141344cd1fd0a4f28419497f9722a3daafe3b4186f6b6457e09190a35050565b5f602082840312156100cf575f80fd5b81516001600160a01b03811681146100e5575f80fd5b9392505050565b610ab9806100f95f395ff3fe6080604052600436106100a5575f3560e01c80638da5cb5b116100625780638da5cb5b1461014f578063b5d5b5fa14610175578063ce325bf814610194578063d3ea43501461020f578063d5a44f861461022e578063f2fde38b146102d4575f80fd5b80631820cabb146100a95780632e17de78146100d25780633a4b66f1146100f35780635997bb37146100fb578063715018a61461010f578063842e298114610123575b5f80fd5b3480156100b4575f80fd5b506100bf621baf8081565b6040519081526020015b60405180910390f35b3480156100dd575f80fd5b506100f16100ec366004610938565b6102f3565b005b6100f161049c565b348015610106575f80fd5b506100bf600c81565b34801561011a575f80fd5b506100f1610631565b34801561012e575f80fd5b5061014261013d36600461096a565b610642565b6040516100c9919061098a565b34801561015a575f80fd5b505f546040516001600160a01b0390911681526020016100c9565b348015610180575f80fd5b506100bf61018f3660046109cd565b6106ab565b34801561019f575f80fd5b506101b36101ae366004610938565b6106d6565b6040516100c99190815181526020808301516001600160a01b03169082015260408083015190820152606080830151908201526080808301519082015260a08083015115159082015260c0918201519181019190915260e00190565b34801561021a575f80fd5b506100bf610229366004610938565b610789565b348015610239575f80fd5b50610295610248366004610938565b600360208190525f9182526040909120805460018201546002830154938301546004840154600585015460069095015493956001600160a01b039093169492939192909160ff9091169087565b604080519788526001600160a01b0390961660208801529486019390935260608501919091526080840152151560a083015260c082015260e0016100c9565b3480156102df575f80fd5b506100f16102ee36600461096a565b610859565b6102fb610893565b5f81815260036020526040902060018101546001600160a01b0316331461035a5760405162461bcd60e51b815260206004820152600e60248201526d4e6f7420796f7572207374616b6560901b60448201526064015b60405180910390fd5b600581015460ff166103a15760405162461bcd60e51b815260206004820152601060248201526f5374616b65206e6f742061637469766560801b6044820152606401610351565b80600401544210156103ed5760405162461bcd60e51b8152602060048201526015602482015274131bd8dac81c195c9a5bd9081b9bdd08195b991959605a1b6044820152606401610351565b5f6103f783610789565b90505f81836002015461040a9190610a09565b60058401805460ff1916905560068401839055604051909150339082156108fc029083905f818181858888f1935050505015801561044a573d5f803e3d5ffd5b5060028301546040805191825260208201849052339186917fffdaf13b1d96bfc2213355f353f84c19493e0681eb0df26f83d862acd266750a910160405180910390a350505061049960018055565b50565b6104a4610893565b5f34116104f35760405162461bcd60e51b815260206004820152601d60248201527f416d6f756e74206d7573742062652067726561746572207468616e20300000006044820152606401610351565b60028054905f61050283610a22565b91905055505f60025490506040518060e00160405280828152602001336001600160a01b03168152602001348152602001428152602001621baf80426105489190610a09565b8152600160208083018290525f60409384018190528581526003808352848220865181558684015181860180546001600160a01b0319166001600160a01b03909216919091179055868601516002820155606087015191810191909155608086015160048083019190915560a087015160058301805460ff191691151591909117905560c09096015160069091015533808252948252838120805493840181558152819020909101849055905134815283917f18dcd430020e4d4899772fd94a8b40451dc5044dfb70bc46b532eeae431c864f910160405180910390a35061062f60018055565b565b6106396108bd565b61062f5f6108e9565b6001600160a01b0381165f9081526004602090815260409182902080548351818402810184019094528084526060939283018282801561069f57602002820191905f5260205f20905b81548152602001906001019080831161068b575b50505050509050919050565b6004602052815f5260405f2081815481106106c4575f80fd5b905f5260205f20015f91509150505481565b61071a6040518060e001604052805f81526020015f6001600160a01b031681526020015f81526020015f81526020015f81526020015f151581526020015f81525090565b505f90815260036020818152604092839020835160e0810185528154815260018201546001600160a01b03169281019290925260028101549382019390935290820154606082015260048201546080820152600582015460ff16151560a082015260069091015460c082015290565b5f818152600360208181526040808420815160e0810183528154815260018201546001600160a01b03169381019390935260028101549183019190915291820154606082015260048201546080820152600582015460ff16151560a0820181905260069092015460c0820152906108045760c0015192915050565b5f8160600151426108159190610a3a565b90505f6108256201518083610a4d565b9050618e9481600c856040015161083c9190610a6c565b6108469190610a6c565b6108509190610a4d565b95945050505050565b6108616108bd565b6001600160a01b03811661088a57604051631e4fbdf760e01b81525f6004820152602401610351565b610499816108e9565b6002600154036108b657604051633ee5aeb560e01b815260040160405180910390fd5b6002600155565b5f546001600160a01b0316331461062f5760405163118cdaa760e01b8152336004820152602401610351565b5f80546001600160a01b038381166001600160a01b0319831681178455604051919092169283917f8be0079c531659141344cd1fd0a4f28419497f9722a3daafe3b4186f6b6457e09190a35050565b5f60208284031215610948575f80fd5b5035919050565b80356001600160a01b0381168114610965575f80fd5b919050565b5f6020828403121561097a575f80fd5b6109838261094f565b9392505050565b602080825282518282018190525f9190848201906040850190845b818110156109c1578351835292840192918401916001016109a5565b50909695505050505050565b5f80604083850312156109de575f80fd5b6109e78361094f565b946020939093013593505050565b634e487b7160e01b5f52601160045260245ffd5b80820180821115610a1c57610a1c6109f5565b92915050565b5f60018201610a3357610a336109f5565b5060010190565b81810381811115610a1c57610a1c6109f5565b5f82610a6757634e487b7160e01b5f52601260045260245ffd5b500490565b8082028115828204841417610a1c57610a1c6109f556fea26469706673582212206d1da712b0d87112a466bfe686e054fc1c97b4f7a68d02c514750d798177b13064736f6c63430008140033","linkReferences":{}},"methodIdentifiers":{"LOCK_PERIOD()":"1820cabb","REWARD_RATE()":"5997bb37","calculateRewards(uint256)":"d3ea4350","getStake(uint256)":"ce325bf8","getUserStakes(address)":"842e2981","owner()":"8da5cb5b","renounceOwnership()":"715018a6","stake()":"3a4b66f1","stakes(uint256)":"d5a44f86","transferOwnership(address)":"f2fde38b","unstake(uint256)":"2e17de78","userStakes(address,uint256)":"b5d5b5fa"},"id":29}